{
  "contractName": "Blog",
  "abi": [
    {
      "inputs": [],
      "payable": false,
      "stateMutability": "nonpayable",
      "type": "constructor"
    },
    {
      "anonymous": false,
      "inputs": [
        {
          "indexed": false,
          "internalType": "uint256",
          "name": "postId",
          "type": "uint256"
        },
        {
          "indexed": false,
          "internalType": "address",
          "name": "author",
          "type": "address"
        },
        {
          "indexed": false,
          "internalType": "string",
          "name": "content",
          "type": "string"
        }
      ],
      "name": "CommentAdded",
      "type": "event"
    },
    {
      "anonymous": false,
      "inputs": [
        {
          "indexed": false,
          "internalType": "uint256",
          "name": "id",
          "type": "uint256"
        },
        {
          "indexed": false,
          "internalType": "string",
          "name": "content",
          "type": "string"
        },
        {
          "indexed": false,
          "internalType": "uint256",
          "name": "tipAmount",
          "type": "uint256"
        },
        {
          "indexed": false,
          "internalType": "address payable",
          "name": "author",
          "type": "address"
        }
      ],
      "name": "PostCreated",
      "type": "event"
    },
    {
      "anonymous": false,
      "inputs": [
        {
          "indexed": false,
          "internalType": "uint256",
          "name": "id",
          "type": "uint256"
        },
        {
          "indexed": false,
          "internalType": "string",
          "name": "content",
          "type": "string"
        },
        {
          "indexed": false,
          "internalType": "uint256",
          "name": "tipAmount",
          "type": "uint256"
        },
        {
          "indexed": false,
          "internalType": "address payable",
          "name": "author",
          "type": "address"
        }
      ],
      "name": "PostTipped",
      "type": "event"
    },
    {
      "constant": true,
      "inputs": [
        {
          "internalType": "uint256",
          "name": "",
          "type": "uint256"
        },
        {
          "internalType": "uint256",
          "name": "",
          "type": "uint256"
        }
      ],
      "name": "comments",
      "outputs": [
        {
          "internalType": "address",
          "name": "author",
          "type": "address"
        },
        {
          "internalType": "string",
          "name": "content",
          "type": "string"
        }
      ],
      "payable": false,
      "stateMutability": "view",
      "type": "function"
    },
    {
      "constant": true,
      "inputs": [],
      "name": "postCount",
      "outputs": [
        {
          "internalType": "uint256",
          "name": "",
          "type": "uint256"
        }
      ],
      "payable": false,
      "stateMutability": "view",
      "type": "function"
    },
    {
      "constant": true,
      "inputs": [
        {
          "internalType": "uint256",
          "name": "",
          "type": "uint256"
        }
      ],
      "name": "posts",
      "outputs": [
        {
          "internalType": "uint256",
          "name": "id",
          "type": "uint256"
        },
        {
          "internalType": "string",
          "name": "content",
          "type": "string"
        },
        {
          "internalType": "uint256",
          "name": "tipAmount",
          "type": "uint256"
        },
        {
          "internalType": "address payable",
          "name": "author",
          "type": "address"
        },
        {
          "internalType": "uint256",
          "name": "numberOfComments",
          "type": "uint256"
        }
      ],
      "payable": false,
      "stateMutability": "view",
      "type": "function"
    },
    {
      "constant": true,
      "inputs": [],
      "name": "value",
      "outputs": [
        {
          "internalType": "uint256",
          "name": "",
          "type": "uint256"
        }
      ],
      "payable": false,
      "stateMutability": "view",
      "type": "function"
    },
    {
      "constant": false,
      "inputs": [
        {
          "internalType": "string",
          "name": "_content",
          "type": "string"
        }
      ],
      "name": "createPost",
      "outputs": [],
      "payable": false,
      "stateMutability": "nonpayable",
      "type": "function"
    },
    {
      "constant": false,
      "inputs": [
        {
          "internalType": "uint256",
          "name": "_postId",
          "type": "uint256"
        },
        {
          "internalType": "string",
          "name": "_content",
          "type": "string"
        }
      ],
      "name": "commentPost",
      "outputs": [],
      "payable": false,
      "stateMutability": "nonpayable",
      "type": "function"
    },
    {
      "constant": false,
      "inputs": [
        {
          "internalType": "uint256",
          "name": "_postId",
          "type": "uint256"
        }
      ],
      "name": "tipPost",
      "outputs": [],
      "payable": true,
      "stateMutability": "payable",
      "type": "function"
    }
  ],
  "bytecode": "0x608060405234801561001057600080fd5b50336000806101000a81548173ffffffffffffffffffffffffffffffffffffffff021916908373ffffffffffffffffffffffffffffffffffffffff16021790555060056001819055506000600281905550610cf5806100706000396000f3fe6080604052600436106100705760003560e01c80633fa4f2451161004e5780633fa4f2451461026e57806374d3c1f814610299578063c7303c61146102c7578063fc6c776f1461038f57610070565b80630418e5ff146100755780630b1e7f831461014757806317906c2e14610243575b600080fd5b34801561008157600080fd5b506101456004803603604081101561009857600080fd5b8101908080359060200190929190803590602001906401000000008111156100bf57600080fd5b8201836020820111156100d157600080fd5b803590602001918460018302840111640100000000831117156100f357600080fd5b91908080601f016020809104026020016040519081016040528093929190818152602001838380828437600081840152601f19601f820116905080830192505050505050509192919290505050610480565b005b34801561015357600080fd5b506101806004803603602081101561016a57600080fd5b8101908080359060200190929190505050610650565b60405180868152602001806020018581526020018473ffffffffffffffffffffffffffffffffffffffff1673ffffffffffffffffffffffffffffffffffffffff168152602001838152602001828103825286818151815260200191508051906020019080838360005b838110156102045780820151818401526020810190506101e9565b50505050905090810190601f1680156102315780820380516001836020036101000a031916815260200191505b50965050505050505060405180910390f35b34801561024f57600080fd5b5061025861073e565b6040518082815260200191505060405180910390f35b34801561027a57600080fd5b50610283610744565b6040518082815260200191505060405180910390f35b6102c5600480360360208110156102af57600080fd5b810190808035906020019092919050505061074a565b005b3480156102d357600080fd5b5061038d600480360360208110156102ea57600080fd5b810190808035906020019064010000000081111561030757600080fd5b82018360208201111561031957600080fd5b8035906020019184600183028401116401000000008311171561033b57600080fd5b91908080601f016020809104026020016040519081016040528093929190818152602001838380828437600081840152601f19601f820116905080830192505050505050509192919290505050610921565b005b34801561039b57600080fd5b506103d2600480360360408110156103b257600080fd5b810190808035906020019092919080359060200190929190505050610ab2565b604051808373ffffffffffffffffffffffffffffffffffffffff1673ffffffffffffffffffffffffffffffffffffffff16815260200180602001828103825283818151815260200191508051906020019080838360005b83811015610444578082015181840152602081019050610429565b50505050905090810190601f1680156104715780820380516001836020036101000a031916815260200191505b50935050505060405180910390f35b600081511161048e57600080fd5b6000600460008481526020019081526020016000209050806004016000815480929190600101919050555060405180604001604052803373ffffffffffffffffffffffffffffffffffffffff168152602001838152506003600085815260200190815260200160002060008360040154815260200190815260200160002060008201518160000160006101000a81548173ffffffffffffffffffffffffffffffffffffffff021916908373ffffffffffffffffffffffffffffffffffffffff160217905550602082015181600101908051906020019061056f929190610b9b565b509050507fcc2d7dd2085ae6644799a42c0174adf9afc10a43f26db5eac3ddd1f96d1d64be833384604051808481526020018373ffffffffffffffffffffffffffffffffffffffff1673ffffffffffffffffffffffffffffffffffffffff16815260200180602001828103825283818151815260200191508051906020019080838360005b8381101561060f5780820151818401526020810190506105f4565b50505050905090810190601f16801561063c5780820380516001836020036101000a031916815260200191505b5094505050505060405180910390a1505050565b6004602052806000526040600020600091509050806000015490806001018054600181600116156101000203166002900480601f0160208091040260200160405190810160405280929190818152602001828054600181600116156101000203166002900480156107025780601f106106d757610100808354040283529160200191610702565b820191906000526020600020905b8154815290600101906020018083116106e557829003601f168201915b5050505050908060020154908060030160009054906101000a900473ffffffffffffffffffffffffffffffffffffffff16908060040154905085565b60025481565b60015481565b6000341161075757600080fd5b600060046000838152602001908152602001600020905034816002016000828254019250508190555060008160030160009054906101000a900473ffffffffffffffffffffffffffffffffffffffff1690508073ffffffffffffffffffffffffffffffffffffffff166108fc349081150290604051600060405180830381858888f193505050501580156107ef573d6000803e3d6000fd5b507f20988fe475351e75813672abada1dddb7ac67cbbeb81e61e1160b8329d8cdf1c82600001548360010184600201548560030160009054906101000a900473ffffffffffffffffffffffffffffffffffffffff1660405180858152602001806020018481526020018373ffffffffffffffffffffffffffffffffffffffff1673ffffffffffffffffffffffffffffffffffffffff16815260200182810382528581815460018160011615610100020316600290048152602001915080546001816001161561010002031660029004801561090b5780601f106108e05761010080835404028352916020019161090b565b820191906000526020600020905b8154815290600101906020018083116108ee57829003601f168201915b50509550505050505060405180910390a1505050565b600081511161092f57600080fd5b60026000815480929190600101919050555060006004600060025481526020019081526020016000209050338160030160006101000a81548173ffffffffffffffffffffffffffffffffffffffff021916908373ffffffffffffffffffffffffffffffffffffffff1602179055506002548160000181905550818160010190805190602001906109c0929190610c1b565b50600081600201819055507fc66336337a24e513f909b3b25119854dba8385d51307dbc7d31d1b2805e19c7e6002548360003360405180858152602001806020018481526020018373ffffffffffffffffffffffffffffffffffffffff1673ffffffffffffffffffffffffffffffffffffffff168152602001828103825285818151815260200191508051906020019080838360005b83811015610a71578082015181840152602081019050610a56565b50505050905090810190601f168015610a9e5780820380516001836020036101000a031916815260200191505b509550505050505060405180910390a15050565b6003602052816000526040600020602052806000526040600020600091509150508060000160009054906101000a900473ffffffffffffffffffffffffffffffffffffffff1690806001018054600181600116156101000203166002900480601f016020809104026020016040519081016040528092919081815260200182805460018160011615610100020316600290048015610b915780601f10610b6657610100808354040283529160200191610b91565b820191906000526020600020905b815481529060010190602001808311610b7457829003601f168201915b5050505050905082565b828054600181600116156101000203166002900490600052602060002090601f016020900481019282601f10610bdc57805160ff1916838001178555610c0a565b82800160010185558215610c0a579182015b82811115610c09578251825591602001919060010190610bee565b5b509050610c179190610c9b565b5090565b828054600181600116156101000203166002900490600052602060002090601f016020900481019282601f10610c5c57805160ff1916838001178555610c8a565b82800160010185558215610c8a579182015b82811115610c89578251825591602001919060010190610c6e565b5b509050610c979190610c9b565b5090565b610cbd91905b80821115610cb9576000816000905550600101610ca1565b5090565b9056fea265627a7a72315820f0a05bea2d4b97f8228603b7470a9e404e6ca11e7655d37bb934bcc254a2657264736f6c63430005100032",
  "source": "pragma solidity ^0.5.4;\r\n\r\ncontract Blog {\r\n\r\n    address owner;\r\n    uint256 public value;\r\n    uint256 public postCount;\r\n\r\n    mapping(uint256 => mapping(uint256 => Comment)) public comments;\r\n    mapping(uint256 => Post) public posts;\r\n//    Comment [] public comments;\r\n    /* Structs */\r\n    struct Comment {\r\n        address author;\r\n        string content;\r\n\r\n    }\r\n\r\n    struct Post {\r\n        uint256 id;\r\n        string content;\r\n        uint256 tipAmount;\r\n        address payable author;\r\n        uint256 numberOfComments;\r\n    }\r\n\r\n\r\n    constructor () public {\r\n        owner = msg.sender;\r\n        value = 5;\r\n        postCount = 0;\r\n    }\r\n\r\n    /* Events for Monitoring */\r\n    event PostCreated(\r\n        uint256 id,\r\n        string content,\r\n        uint tipAmount,\r\n        address payable author\r\n    );\r\n\r\n    event CommentAdded(\r\n        uint256 postId,\r\n        address author,\r\n        string content\r\n    );\r\n    event PostTipped(\r\n        uint id,\r\n        string content,\r\n        uint tipAmount,\r\n        address payable author\r\n    );\r\n\r\n    /* Functions */\r\n\r\n    function createPost(string memory _content) public {\r\n        require(bytes(_content).length > 0);\r\n        postCount++;\r\n        Post storage post = posts[postCount];\r\n        post.author = msg.sender;\r\n        post.id = postCount;\r\n        post.content = _content;\r\n        post.tipAmount = 0;\r\n\r\n        emit PostCreated(postCount, _content, 0, msg.sender);\r\n    }\r\n\r\n\r\n    function commentPost(uint256 _postId, string memory _content) public {\r\n        require(bytes(_content).length > 0);\r\n\r\n        Post storage _commentedPost = posts[_postId];\r\n        _commentedPost.numberOfComments++;\r\n\r\n        comments[_postId][_commentedPost.numberOfComments] = Comment({\r\n        author : msg.sender,\r\n        content : _content\r\n        });\r\n        emit CommentAdded(_postId, msg.sender, _content);\r\n    }\r\n\r\n\r\n        function tipPost(uint256 _postId) public payable {\r\n            require(msg.value > 0);\r\n            Post storage _tippedPost = posts[_postId];\r\n            _tippedPost.tipAmount += msg.value;\r\n            address payable author = _tippedPost.author;\r\n            address(author).transfer(msg.value);\r\n            emit PostTipped(_tippedPost.id, _tippedPost.content, _tippedPost.tipAmount, _tippedPost.author);\r\n        }\r\n\r\n\r\n}",
  "sourcePath": "C:/Users/VASILISVITTIS/Documents/main/src/contracts/Blog.sol",
  "compiler": {
    "name": "solc",
    "version": "0.5.16+commit.9c3226ce.Emscripten.clang"
  },
  "schemaVersion": "3.2.3",
  "updatedAt": "2021-10-10T07:53:26.428Z",
  "networkType": "ethereum",
  "devdoc": {
    "methods": {}
  },
  "userdoc": {
    "methods": {}
  }
}