{
  "contractName": "Blog",
  "abi": [
    {
      "inputs": [],
      "payable": false,
      "stateMutability": "nonpayable",
      "type": "constructor"
    },
    {
      "anonymous": false,
      "inputs": [
        {
          "indexed": false,
          "internalType": "uint256",
          "name": "postId",
          "type": "uint256"
        },
        {
          "indexed": false,
          "internalType": "address",
          "name": "author",
          "type": "address"
        },
        {
          "indexed": false,
          "internalType": "string",
          "name": "content",
          "type": "string"
        }
      ],
      "name": "CommentAdded",
      "type": "event"
    },
    {
      "anonymous": false,
      "inputs": [
        {
          "indexed": false,
          "internalType": "uint256",
          "name": "id",
          "type": "uint256"
        },
        {
          "indexed": false,
          "internalType": "string",
          "name": "content",
          "type": "string"
        },
        {
          "indexed": false,
          "internalType": "uint256",
          "name": "tipAmount",
          "type": "uint256"
        },
        {
          "indexed": false,
          "internalType": "address payable",
          "name": "author",
          "type": "address"
        }
      ],
      "name": "PostCreated",
      "type": "event"
    },
    {
      "anonymous": false,
      "inputs": [
        {
          "indexed": false,
          "internalType": "uint256",
          "name": "id",
          "type": "uint256"
        },
        {
          "indexed": false,
          "internalType": "string",
          "name": "content",
          "type": "string"
        },
        {
          "indexed": false,
          "internalType": "uint256",
          "name": "tipAmount",
          "type": "uint256"
        },
        {
          "indexed": false,
          "internalType": "address payable",
          "name": "author",
          "type": "address"
        }
      ],
      "name": "PostTipped",
      "type": "event"
    },
    {
      "constant": true,
      "inputs": [
        {
          "internalType": "uint256",
          "name": "",
          "type": "uint256"
        },
        {
          "internalType": "uint256",
          "name": "",
          "type": "uint256"
        }
      ],
      "name": "comments",
      "outputs": [
        {
          "internalType": "address",
          "name": "author",
          "type": "address"
        },
        {
          "internalType": "string",
          "name": "content",
          "type": "string"
        }
      ],
      "payable": false,
      "stateMutability": "view",
      "type": "function"
    },
    {
      "constant": true,
      "inputs": [],
      "name": "postCount",
      "outputs": [
        {
          "internalType": "uint256",
          "name": "",
          "type": "uint256"
        }
      ],
      "payable": false,
      "stateMutability": "view",
      "type": "function"
    },
    {
      "constant": true,
      "inputs": [
        {
          "internalType": "uint256",
          "name": "",
          "type": "uint256"
        }
      ],
      "name": "posts",
      "outputs": [
        {
          "internalType": "uint256",
          "name": "id",
          "type": "uint256"
        },
        {
          "internalType": "string",
          "name": "title",
          "type": "string"
        },
        {
          "internalType": "string",
          "name": "content",
          "type": "string"
        },
        {
          "internalType": "uint256",
          "name": "tipAmount",
          "type": "uint256"
        },
        {
          "internalType": "address payable",
          "name": "author",
          "type": "address"
        },
        {
          "internalType": "uint256",
          "name": "numberOfComments",
          "type": "uint256"
        }
      ],
      "payable": false,
      "stateMutability": "view",
      "type": "function"
    },
    {
      "constant": true,
      "inputs": [],
      "name": "value",
      "outputs": [
        {
          "internalType": "uint256",
          "name": "",
          "type": "uint256"
        }
      ],
      "payable": false,
      "stateMutability": "view",
      "type": "function"
    },
    {
      "constant": false,
      "inputs": [
        {
          "internalType": "string",
          "name": "_title",
          "type": "string"
        },
        {
          "internalType": "string",
          "name": "_content",
          "type": "string"
        }
      ],
      "name": "createPost",
      "outputs": [],
      "payable": false,
      "stateMutability": "nonpayable",
      "type": "function"
    },
    {
      "constant": false,
      "inputs": [
        {
          "internalType": "uint256",
          "name": "_postId",
          "type": "uint256"
        },
        {
          "internalType": "string",
          "name": "_content",
          "type": "string"
        }
      ],
      "name": "commentPost",
      "outputs": [],
      "payable": false,
      "stateMutability": "nonpayable",
      "type": "function"
    },
    {
      "constant": false,
      "inputs": [
        {
          "internalType": "uint256",
          "name": "_postId",
          "type": "uint256"
        }
      ],
      "name": "tipPost",
      "outputs": [],
      "payable": true,
      "stateMutability": "payable",
      "type": "function"
    }
  ],
  "bytecode": "0x608060405234801561001057600080fd5b50336000806101000a81548173ffffffffffffffffffffffffffffffffffffffff021916908373ffffffffffffffffffffffffffffffffffffffff16021790555060056001819055506000600281905550610eb0806100706000396000f3fe6080604052600436106100705760003560e01c8063392338f51161004e578063392338f5146102da5780633fa4f2451461043957806374d3c1f814610464578063fc6c776f1461049257610070565b80630418e5ff146100755780630b1e7f831461014757806317906c2e146102af575b600080fd5b34801561008157600080fd5b506101456004803603604081101561009857600080fd5b8101908080359060200190929190803590602001906401000000008111156100bf57600080fd5b8201836020820111156100d157600080fd5b803590602001918460018302840111640100000000831117156100f357600080fd5b91908080601f016020809104026020016040519081016040528093929190818152602001838380828437600081840152601f19601f820116905080830192505050505050509192919290505050610583565b005b34801561015357600080fd5b506101806004803603602081101561016a57600080fd5b8101908080359060200190929190505050610753565b6040518087815260200180602001806020018681526020018573ffffffffffffffffffffffffffffffffffffffff1673ffffffffffffffffffffffffffffffffffffffff168152602001848152602001838103835288818151815260200191508051906020019080838360005b838110156102085780820151818401526020810190506101ed565b50505050905090810190601f1680156102355780820380516001836020036101000a031916815260200191505b50838103825287818151815260200191508051906020019080838360005b8381101561026e578082015181840152602081019050610253565b50505050905090810190601f16801561029b5780820380516001836020036101000a031916815260200191505b509850505050505050505060405180910390f35b3480156102bb57600080fd5b506102c46108df565b6040518082815260200191505060405180910390f35b3480156102e657600080fd5b50610437600480360360408110156102fd57600080fd5b810190808035906020019064010000000081111561031a57600080fd5b82018360208201111561032c57600080fd5b8035906020019184600183028401116401000000008311171561034e57600080fd5b91908080601f016020809104026020016040519081016040528093929190818152602001838380828437600081840152601f19601f820116905080830192505050505050509192919290803590602001906401000000008111156103b157600080fd5b8201836020820111156103c357600080fd5b803590602001918460018302840111640100000000831117156103e557600080fd5b91908080601f016020809104026020016040519081016040528093929190818152602001838380828437600081840152601f19601f8201169050808301925050505050505091929192905050506108e5565b005b34801561044557600080fd5b5061044e610a90565b6040518082815260200191505060405180910390f35b6104906004803603602081101561047a57600080fd5b8101908080359060200190929190505050610a96565b005b34801561049e57600080fd5b506104d5600480360360408110156104b557600080fd5b810190808035906020019092919080359060200190929190505050610c6d565b604051808373ffffffffffffffffffffffffffffffffffffffff1673ffffffffffffffffffffffffffffffffffffffff16815260200180602001828103825283818151815260200191508051906020019080838360005b8381101561054757808201518184015260208101905061052c565b50505050905090810190601f1680156105745780820380516001836020036101000a031916815260200191505b50935050505060405180910390f35b600081511161059157600080fd5b6000600460008481526020019081526020016000209050806005016000815480929190600101919050555060405180604001604052803373ffffffffffffffffffffffffffffffffffffffff168152602001838152506003600085815260200190815260200160002060008360050154815260200190815260200160002060008201518160000160006101000a81548173ffffffffffffffffffffffffffffffffffffffff021916908373ffffffffffffffffffffffffffffffffffffffff1602179055506020820151816001019080519060200190610672929190610d56565b509050507fcc2d7dd2085ae6644799a42c0174adf9afc10a43f26db5eac3ddd1f96d1d64be833384604051808481526020018373ffffffffffffffffffffffffffffffffffffffff1673ffffffffffffffffffffffffffffffffffffffff16815260200180602001828103825283818151815260200191508051906020019080838360005b838110156107125780820151818401526020810190506106f7565b50505050905090810190601f16801561073f5780820380516001836020036101000a031916815260200191505b5094505050505060405180910390a1505050565b6004602052806000526040600020600091509050806000015490806001018054600181600116156101000203166002900480601f0160208091040260200160405190810160405280929190818152602001828054600181600116156101000203166002900480156108055780601f106107da57610100808354040283529160200191610805565b820191906000526020600020905b8154815290600101906020018083116107e857829003601f168201915b505050505090806002018054600181600116156101000203166002900480601f0160208091040260200160405190810160405280929190818152602001828054600181600116156101000203166002900480156108a35780601f10610878576101008083540402835291602001916108a3565b820191906000526020600020905b81548152906001019060200180831161088657829003601f168201915b5050505050908060030154908060040160009054906101000a900473ffffffffffffffffffffffffffffffffffffffff16908060050154905086565b60025481565b60008151116108f357600080fd5b6002600081548092919060010191905055506000600460006002548152602001908152602001600020905082816001019080519060200190610936929190610dd6565b50338160040160006101000a81548173ffffffffffffffffffffffffffffffffffffffff021916908373ffffffffffffffffffffffffffffffffffffffff16021790555060025481600001819055508181600201908051906020019061099d929190610dd6565b50600081600301819055507fc66336337a24e513f909b3b25119854dba8385d51307dbc7d31d1b2805e19c7e6002548360003360405180858152602001806020018481526020018373ffffffffffffffffffffffffffffffffffffffff1673ffffffffffffffffffffffffffffffffffffffff168152602001828103825285818151815260200191508051906020019080838360005b83811015610a4e578082015181840152602081019050610a33565b50505050905090810190601f168015610a7b5780820380516001836020036101000a031916815260200191505b509550505050505060405180910390a1505050565b60015481565b60003411610aa357600080fd5b600060046000838152602001908152602001600020905034816003016000828254019250508190555060008160040160009054906101000a900473ffffffffffffffffffffffffffffffffffffffff1690508073ffffffffffffffffffffffffffffffffffffffff166108fc349081150290604051600060405180830381858888f19350505050158015610b3b573d6000803e3d6000fd5b507f20988fe475351e75813672abada1dddb7ac67cbbeb81e61e1160b8329d8cdf1c82600001548360020184600301548560040160009054906101000a900473ffffffffffffffffffffffffffffffffffffffff1660405180858152602001806020018481526020018373ffffffffffffffffffffffffffffffffffffffff1673ffffffffffffffffffffffffffffffffffffffff168152602001828103825285818154600181600116156101000203166002900481526020019150805460018160011615610100020316600290048015610c575780601f10610c2c57610100808354040283529160200191610c57565b820191906000526020600020905b815481529060010190602001808311610c3a57829003601f168201915b50509550505050505060405180910390a1505050565b6003602052816000526040600020602052806000526040600020600091509150508060000160009054906101000a900473ffffffffffffffffffffffffffffffffffffffff1690806001018054600181600116156101000203166002900480601f016020809104026020016040519081016040528092919081815260200182805460018160011615610100020316600290048015610d4c5780601f10610d2157610100808354040283529160200191610d4c565b820191906000526020600020905b815481529060010190602001808311610d2f57829003601f168201915b5050505050905082565b828054600181600116156101000203166002900490600052602060002090601f016020900481019282601f10610d9757805160ff1916838001178555610dc5565b82800160010185558215610dc5579182015b82811115610dc4578251825591602001919060010190610da9565b5b509050610dd29190610e56565b5090565b828054600181600116156101000203166002900490600052602060002090601f016020900481019282601f10610e1757805160ff1916838001178555610e45565b82800160010185558215610e45579182015b82811115610e44578251825591602001919060010190610e29565b5b509050610e529190610e56565b5090565b610e7891905b80821115610e74576000816000905550600101610e5c565b5090565b9056fea265627a7a72315820341fe09f839f9fda41d8f0819e139d2c058820e3b16ad4ee55caf4081aa645f264736f6c63430005100032",
  "source": "pragma solidity ^0.5.4;\r\n\r\ncontract Blog {\r\n\r\n    address owner;\r\n    uint256 public value;\r\n    uint256 public postCount;\r\n\r\n    mapping(uint256 => mapping(uint256 => Comment)) public comments;\r\n    mapping(uint256 => Post) public posts;\r\n    //    Comment [] public comments;\r\n    /* Structs */\r\n    struct Comment {\r\n        address author;\r\n        string content;\r\n\r\n    }\r\n\r\n    struct Post {\r\n        uint256 id;\r\n        string title;\r\n        string content;\r\n        uint256 tipAmount;\r\n        address payable author;\r\n        uint256 numberOfComments;\r\n    }\r\n\r\n\r\n    constructor () public {\r\n        owner = msg.sender;\r\n        value = 5;\r\n        postCount = 0;\r\n    }\r\n\r\n    /* Events for Monitoring */\r\n    event PostCreated(\r\n        uint256 id,\r\n        string content,\r\n        uint tipAmount,\r\n        address payable author\r\n    );\r\n\r\n    event CommentAdded(\r\n        uint256 postId,\r\n        address author,\r\n        string content\r\n    );\r\n    event PostTipped(\r\n        uint id,\r\n        string content,\r\n        uint tipAmount,\r\n        address payable author\r\n    );\r\n\r\n    /* Functions */\r\n\r\n    function createPost(string memory _title, string memory _content) public {\r\n        require(bytes(_content).length > 0);\r\n        postCount++;\r\n        Post storage post = posts[postCount];\r\n        post.title = _title;\r\n        post.author = msg.sender;\r\n        post.id = postCount;\r\n        post.content = _content;\r\n        post.tipAmount = 0;\r\n\r\n        emit PostCreated(postCount, _content, 0, msg.sender);\r\n    }\r\n\r\n\r\n    function commentPost(uint256 _postId, string memory _content) public {\r\n        require(bytes(_content).length > 0);\r\n\r\n        Post storage _commentedPost = posts[_postId];\r\n        _commentedPost.numberOfComments++;\r\n\r\n        comments[_postId][_commentedPost.numberOfComments] = Comment({\r\n        author : msg.sender,\r\n        content : _content\r\n        });\r\n        emit CommentAdded(_postId, msg.sender, _content);\r\n    }\r\n\r\n\r\n    function tipPost(uint256 _postId) public payable {\r\n        require(msg.value > 0);\r\n        Post storage _tippedPost = posts[_postId];\r\n        _tippedPost.tipAmount += msg.value;\r\n        address payable author = _tippedPost.author;\r\n        address(author).transfer(msg.value);\r\n        emit PostTipped(_tippedPost.id, _tippedPost.content, _tippedPost.tipAmount, _tippedPost.author);\r\n    }\r\n\r\n\r\n}",
  "sourcePath": "C:/Users/VASILISVITTIS/Documents/main/src/contracts/Blog.sol",
  "compiler": {
    "name": "solc",
    "version": "0.5.16+commit.9c3226ce.Emscripten.clang"
  },
  "schemaVersion": "3.2.3",
  "updatedAt": "2021-10-10T21:06:15.965Z",
  "networkType": "ethereum",
  "devdoc": {
    "methods": {}
  },
  "userdoc": {
    "methods": {}
  }
}