{
  "contractName": "Blog",
  "abi": [
    {
      "inputs": [],
      "payable": false,
      "stateMutability": "nonpayable",
      "type": "constructor"
    },
    {
      "anonymous": false,
      "inputs": [
        {
          "indexed": false,
          "internalType": "uint256",
          "name": "postId",
          "type": "uint256"
        },
        {
          "indexed": false,
          "internalType": "address",
          "name": "author",
          "type": "address"
        },
        {
          "indexed": false,
          "internalType": "string",
          "name": "content",
          "type": "string"
        }
      ],
      "name": "CommentAdded",
      "type": "event"
    },
    {
      "anonymous": false,
      "inputs": [
        {
          "indexed": false,
          "internalType": "uint256",
          "name": "id",
          "type": "uint256"
        },
        {
          "indexed": false,
          "internalType": "string",
          "name": "content",
          "type": "string"
        },
        {
          "indexed": false,
          "internalType": "uint256",
          "name": "tipAmount",
          "type": "uint256"
        },
        {
          "indexed": false,
          "internalType": "address payable",
          "name": "author",
          "type": "address"
        }
      ],
      "name": "PostCreated",
      "type": "event"
    },
    {
      "anonymous": false,
      "inputs": [
        {
          "indexed": false,
          "internalType": "uint256",
          "name": "id",
          "type": "uint256"
        },
        {
          "indexed": false,
          "internalType": "string",
          "name": "content",
          "type": "string"
        },
        {
          "indexed": false,
          "internalType": "uint256",
          "name": "tipAmount",
          "type": "uint256"
        },
        {
          "indexed": false,
          "internalType": "address payable",
          "name": "author",
          "type": "address"
        }
      ],
      "name": "PostTipped",
      "type": "event"
    },
    {
      "constant": true,
      "inputs": [
        {
          "internalType": "uint256",
          "name": "",
          "type": "uint256"
        },
        {
          "internalType": "uint256",
          "name": "",
          "type": "uint256"
        }
      ],
      "name": "comments",
      "outputs": [
        {
          "internalType": "uint256",
          "name": "commentId",
          "type": "uint256"
        },
        {
          "internalType": "address",
          "name": "author",
          "type": "address"
        },
        {
          "internalType": "string",
          "name": "content",
          "type": "string"
        }
      ],
      "payable": false,
      "stateMutability": "view",
      "type": "function"
    },
    {
      "constant": true,
      "inputs": [],
      "name": "postCount",
      "outputs": [
        {
          "internalType": "uint256",
          "name": "",
          "type": "uint256"
        }
      ],
      "payable": false,
      "stateMutability": "view",
      "type": "function"
    },
    {
      "constant": true,
      "inputs": [
        {
          "internalType": "uint256",
          "name": "",
          "type": "uint256"
        }
      ],
      "name": "posts",
      "outputs": [
        {
          "internalType": "uint256",
          "name": "id",
          "type": "uint256"
        },
        {
          "internalType": "string",
          "name": "title",
          "type": "string"
        },
        {
          "internalType": "string",
          "name": "content",
          "type": "string"
        },
        {
          "internalType": "uint256",
          "name": "tipAmount",
          "type": "uint256"
        },
        {
          "internalType": "address payable",
          "name": "author",
          "type": "address"
        },
        {
          "internalType": "uint256",
          "name": "numberOfComments",
          "type": "uint256"
        }
      ],
      "payable": false,
      "stateMutability": "view",
      "type": "function"
    },
    {
      "constant": true,
      "inputs": [],
      "name": "value",
      "outputs": [
        {
          "internalType": "uint256",
          "name": "",
          "type": "uint256"
        }
      ],
      "payable": false,
      "stateMutability": "view",
      "type": "function"
    },
    {
      "constant": false,
      "inputs": [
        {
          "internalType": "string",
          "name": "_title",
          "type": "string"
        },
        {
          "internalType": "string",
          "name": "_content",
          "type": "string"
        }
      ],
      "name": "createPost",
      "outputs": [],
      "payable": false,
      "stateMutability": "nonpayable",
      "type": "function"
    },
    {
      "constant": false,
      "inputs": [
        {
          "internalType": "uint256",
          "name": "_postId",
          "type": "uint256"
        },
        {
          "internalType": "string",
          "name": "_content",
          "type": "string"
        }
      ],
      "name": "commentPost",
      "outputs": [],
      "payable": false,
      "stateMutability": "nonpayable",
      "type": "function"
    },
    {
      "constant": true,
      "inputs": [
        {
          "internalType": "uint256",
          "name": "_postId",
          "type": "uint256"
        },
        {
          "internalType": "uint256",
          "name": "_commentId",
          "type": "uint256"
        }
      ],
      "name": "getComment",
      "outputs": [
        {
          "components": [
            {
              "internalType": "uint256",
              "name": "commentId",
              "type": "uint256"
            },
            {
              "internalType": "address",
              "name": "author",
              "type": "address"
            },
            {
              "internalType": "string",
              "name": "content",
              "type": "string"
            }
          ],
          "internalType": "struct Blog.Comment",
          "name": "",
          "type": "tuple"
        }
      ],
      "payable": false,
      "stateMutability": "view",
      "type": "function"
    },
    {
      "constant": false,
      "inputs": [
        {
          "internalType": "uint256",
          "name": "_postId",
          "type": "uint256"
        }
      ],
      "name": "tipPost",
      "outputs": [],
      "payable": true,
      "stateMutability": "payable",
      "type": "function"
    }
  ],
  "bytecode": "0x608060405234801561001057600080fd5b50336000806101000a81548173ffffffffffffffffffffffffffffffffffffffff021916908373ffffffffffffffffffffffffffffffffffffffff160217905550600560018190555060006002819055506111c0806100706000396000f3fe60806040526004361061007b5760003560e01c80633fa4f2451161004e5780633fa4f2451461013f578063488927531461016a57806374d3c1f8146101a7578063fc6c776f146101c35761007b565b80630418e5ff146100805780630b1e7f83146100a957806317906c2e146100eb578063392338f514610116575b600080fd5b34801561008c57600080fd5b506100a760048036036100a29190810190610b94565b610202565b005b3480156100b557600080fd5b506100d060048036036100cb9190810190610b6b565b610349565b6040516100e296959493929190610f1c565b60405180910390f35b3480156100f757600080fd5b506101006104d5565b60405161010d9190610e39565b60405180910390f35b34801561012257600080fd5b5061013d60048036036101389190810190610aff565b6104db565b005b34801561014b57600080fd5b506101546105ed565b6040516101619190610e39565b60405180910390f35b34801561017657600080fd5b50610191600480360361018c9190810190610be8565b6105f3565b60405161019e9190610e17565b60405180910390f35b6101c160048036036101bc9190810190610b6b565b610734565b005b3480156101cf57600080fd5b506101ea60048036036101e59190810190610be8565b61084b565b6040516101f993929190610e92565b60405180910390f35b600081511161021057600080fd5b600060046000848152602001908152602001600020905080600501600081548092919060010191905055506040518060600160405280826005015481526020013373ffffffffffffffffffffffffffffffffffffffff16815260200183815250600360008581526020019081526020016000206000836005015481526020019081526020016000206000820151816000015560208201518160010160006101000a81548173ffffffffffffffffffffffffffffffffffffffff021916908373ffffffffffffffffffffffffffffffffffffffff160217905550604082015181600201908051906020019061030592919061093a565b509050507fcc2d7dd2085ae6644799a42c0174adf9afc10a43f26db5eac3ddd1f96d1d64be83338460405161033c93929190610e54565b60405180910390a1505050565b6004602052806000526040600020600091509050806000015490806001018054600181600116156101000203166002900480601f0160208091040260200160405190810160405280929190818152602001828054600181600116156101000203166002900480156103fb5780601f106103d0576101008083540402835291602001916103fb565b820191906000526020600020905b8154815290600101906020018083116103de57829003601f168201915b505050505090806002018054600181600116156101000203166002900480601f0160208091040260200160405190810160405280929190818152602001828054600181600116156101000203166002900480156104995780601f1061046e57610100808354040283529160200191610499565b820191906000526020600020905b81548152906001019060200180831161047c57829003601f168201915b5050505050908060030154908060040160009054906101000a900473ffffffffffffffffffffffffffffffffffffffff16908060050154905086565b60025481565b60008151116104e957600080fd5b600260008154809291906001019190505550600060046000600254815260200190815260200160002090508281600101908051906020019061052c9291906109ba565b50338160040160006101000a81548173ffffffffffffffffffffffffffffffffffffffff021916908373ffffffffffffffffffffffffffffffffffffffff1602179055506002548160000181905550818160020190805190602001906105939291906109ba565b5060008160030181905550600081600501819055507fc66336337a24e513f909b3b25119854dba8385d51307dbc7d31d1b2805e19c7e600254836000336040516105e09493929190610ed0565b60405180910390a1505050565b60015481565b6105fb610a3a565b600360008481526020019081526020016000206000838152602001908152602001600020604051806060016040529081600082015481526020016001820160009054906101000a900473ffffffffffffffffffffffffffffffffffffffff1673ffffffffffffffffffffffffffffffffffffffff1673ffffffffffffffffffffffffffffffffffffffff168152602001600282018054600181600116156101000203166002900480601f0160208091040260200160405190810160405280929190818152602001828054600181600116156101000203166002900480156107235780601f106106f857610100808354040283529160200191610723565b820191906000526020600020905b81548152906001019060200180831161070657829003601f168201915b505050505081525050905092915050565b6000341161074157600080fd5b600060046000838152602001908152602001600020905034816003016000828254019250508190555060008160040160009054906101000a900473ffffffffffffffffffffffffffffffffffffffff1690508073ffffffffffffffffffffffffffffffffffffffff166108fc349081150290604051600060405180830381858888f193505050501580156107d9573d6000803e3d6000fd5b507f20988fe475351e75813672abada1dddb7ac67cbbeb81e61e1160b8329d8cdf1c82600001548360020184600301548560040160009054906101000a900473ffffffffffffffffffffffffffffffffffffffff1660405161083e9493929190610f8b565b60405180910390a1505050565b6003602052816000526040600020602052806000526040600020600091509150508060000154908060010160009054906101000a900473ffffffffffffffffffffffffffffffffffffffff1690806002018054600181600116156101000203166002900480601f0160208091040260200160405190810160405280929190818152602001828054600181600116156101000203166002900480156109305780601f1061090557610100808354040283529160200191610930565b820191906000526020600020905b81548152906001019060200180831161091357829003601f168201915b5050505050905083565b828054600181600116156101000203166002900490600052602060002090601f016020900481019282601f1061097b57805160ff19168380011785556109a9565b828001600101855582156109a9579182015b828111156109a857825182559160200191906001019061098d565b5b5090506109b69190610a71565b5090565b828054600181600116156101000203166002900490600052602060002090601f016020900481019282601f106109fb57805160ff1916838001178555610a29565b82800160010185558215610a29579182015b82811115610a28578251825591602001919060010190610a0d565b5b509050610a369190610a71565b5090565b604051806060016040528060008152602001600073ffffffffffffffffffffffffffffffffffffffff168152602001606081525090565b610a9391905b80821115610a8f576000816000905550600101610a77565b5090565b90565b600082601f830112610aa757600080fd5b8135610aba610ab582611004565b610fd7565b91508082526020830160208301858383011115610ad657600080fd5b610ae1838284611113565b50505092915050565b600081359050610af981611166565b92915050565b60008060408385031215610b1257600080fd5b600083013567ffffffffffffffff811115610b2c57600080fd5b610b3885828601610a96565b925050602083013567ffffffffffffffff811115610b5557600080fd5b610b6185828601610a96565b9150509250929050565b600060208284031215610b7d57600080fd5b6000610b8b84828501610aea565b91505092915050565b60008060408385031215610ba757600080fd5b6000610bb585828601610aea565b925050602083013567ffffffffffffffff811115610bd257600080fd5b610bde85828601610a96565b9150509250929050565b60008060408385031215610bfb57600080fd5b6000610c0985828601610aea565b9250506020610c1a85828601610aea565b9150509250929050565b610c2d816110cb565b82525050565b610c3c8161108f565b82525050565b610c4b8161107d565b82525050565b610c5a8161107d565b82525050565b610c69816110dd565b82525050565b6000610c7a82611050565b610c84818561106c565b9350610c94818560208601611122565b610c9d81611155565b840191505092915050565b6000610cb382611045565b610cbd818561105b565b9350610ccd818560208601611122565b610cd681611155565b840191505092915050565b6000610cec82611045565b610cf6818561106c565b9350610d06818560208601611122565b610d0f81611155565b840191505092915050565b600081546001811660008114610d375760018114610d5d57610da1565b607f6002830416610d48818761106c565b955060ff198316865260208601935050610da1565b60028204610d6b818761106c565b9550610d7685611030565b60005b82811015610d9857815481890152600182019150602081019050610d79565b80880195505050505b505092915050565b6000606083016000830151610dc16000860182610df9565b506020830151610dd46020860182610c42565b5060408301518482036040860152610dec8282610ca8565b9150508091505092915050565b610e02816110c1565b82525050565b610e11816110c1565b82525050565b60006020820190508181036000830152610e318184610da9565b905092915050565b6000602082019050610e4e6000830184610e08565b92915050565b6000606082019050610e696000830186610e08565b610e766020830185610c24565b8181036040830152610e888184610c6f565b9050949350505050565b6000606082019050610ea76000830186610e08565b610eb46020830185610c51565b8181036040830152610ec68184610ce1565b9050949350505050565b6000608082019050610ee56000830187610e08565b8181036020830152610ef78186610c6f565b9050610f066040830185610c60565b610f136060830184610c33565b95945050505050565b600060c082019050610f316000830189610e08565b8181036020830152610f438188610ce1565b90508181036040830152610f578187610ce1565b9050610f666060830186610e08565b610f736080830185610c33565b610f8060a0830184610e08565b979650505050505050565b6000608082019050610fa06000830187610e08565b8181036020830152610fb28186610d1a565b9050610fc16040830185610e08565b610fce6060830184610c33565b95945050505050565b6000604051905081810181811067ffffffffffffffff82111715610ffa57600080fd5b8060405250919050565b600067ffffffffffffffff82111561101b57600080fd5b601f19601f8301169050602081019050919050565b60008190508160005260206000209050919050565b600081519050919050565b600081519050919050565b600082825260208201905092915050565b600082825260208201905092915050565b6000611088826110a1565b9050919050565b600061109a826110a1565b9050919050565b600073ffffffffffffffffffffffffffffffffffffffff82169050919050565b6000819050919050565b60006110d6826110ef565b9050919050565b60006110e8826110c1565b9050919050565b60006110fa82611101565b9050919050565b600061110c826110a1565b9050919050565b82818337600083830152505050565b60005b83811015611140578082015181840152602081019050611125565b8381111561114f576000848401525b50505050565b6000601f19601f8301169050919050565b61116f816110c1565b811461117a57600080fd5b5056fea365627a7a72315820daf6c61f08e1290a451d414926122af1f6d8f144f1e83590bbd0928c4cee76cb6c6578706572696d656e74616cf564736f6c63430005100040",
  "source": "pragma solidity ^0.5.4;\r\npragma experimental ABIEncoderV2;\r\ncontract Blog {\r\n\r\n    address owner;\r\n    uint256 public value;\r\n    uint256 public postCount;\r\n\r\n    mapping(uint256 => mapping(uint256 => Comment)) public comments;\r\n    mapping(uint256 => Post) public posts;\r\n    //    Comment [] public comments;\r\n    /* Structs */\r\n    struct Comment {\r\n        uint256 commentId;\r\n        address author;\r\n        string content;\r\n\r\n    }\r\n\r\n    struct Post {\r\n        uint256 id;\r\n        string title;\r\n        string content;\r\n        uint256 tipAmount;\r\n        address payable author;\r\n        uint256 numberOfComments;\r\n    }\r\n\r\n\r\n    constructor () public {\r\n        owner = msg.sender;\r\n        value = 5;\r\n        postCount = 0;\r\n    }\r\n\r\n    /* Events for Monitoring */\r\n    event PostCreated(\r\n        uint256 id,\r\n        string content,\r\n        uint tipAmount,\r\n        address payable author\r\n    );\r\n\r\n    event CommentAdded(\r\n        uint256 postId,\r\n        address author,\r\n        string content\r\n    );\r\n    event PostTipped(\r\n        uint id,\r\n        string content,\r\n        uint tipAmount,\r\n        address payable author\r\n    );\r\n\r\n    /* Functions */\r\n\r\n    function createPost(string memory _title, string memory _content) public {\r\n        require(bytes(_content).length > 0);\r\n        postCount++;\r\n        Post storage post = posts[postCount];\r\n        post.title = _title;\r\n        post.author = msg.sender;\r\n        post.id = postCount;\r\n        post.content = _content;\r\n        post.tipAmount = 0;\r\n        post.numberOfComments = 0;\r\n\r\n        emit PostCreated(postCount, _content, 0, msg.sender);\r\n    }\r\n\r\n\r\n    function commentPost(uint256 _postId, string memory _content) public {\r\n        require(bytes(_content).length > 0);\r\n        Post storage _commentedPost = posts[_postId];\r\n        _commentedPost.numberOfComments++;\r\n        comments[_postId][_commentedPost.numberOfComments] = Comment({\r\n        commentId: _commentedPost.numberOfComments,\r\n        author : msg.sender,\r\n        content : _content\r\n        });\r\n\r\n        emit CommentAdded(_postId, msg.sender, _content);\r\n    }\r\n\r\n    function getComment(uint256 _postId, uint256 _commentId) public view returns (Comment memory) {\r\n        return comments[_postId][_commentId];\r\n    }\r\n    function tipPost(uint256 _postId) public payable {\r\n        require(msg.value > 0);\r\n        Post storage _tippedPost = posts[_postId];\r\n        _tippedPost.tipAmount += msg.value;\r\n        address payable author = _tippedPost.author;\r\n        address(author).transfer(msg.value);\r\n        emit PostTipped(_tippedPost.id, _tippedPost.content, _tippedPost.tipAmount, _tippedPost.author);\r\n    }\r\n\r\n\r\n}",
  "sourcePath": "C:/Users/VASILISVITTIS/Documents/main/src/contracts/Blog.sol",
  "compiler": {
    "name": "solc",
    "version": "0.5.16+commit.9c3226ce.Emscripten.clang"
  },
  "schemaVersion": "3.2.3",
  "updatedAt": "2021-10-11T18:30:07.134Z",
  "networkType": "ethereum",
  "devdoc": {
    "methods": {}
  },
  "userdoc": {
    "methods": {}
  }
}