{
  "contractName": "Blog",
  "abi": [
    {
      "inputs": [],
      "payable": false,
      "stateMutability": "nonpayable",
      "type": "constructor"
    },
    {
      "constant": true,
      "inputs": [],
      "name": "value",
      "outputs": [
        {
          "internalType": "uint256",
          "name": "",
          "type": "uint256"
        }
      ],
      "payable": false,
      "stateMutability": "view",
      "type": "function"
    }
  ],
  "bytecode": "0x6080604052348015600f57600080fd5b5060056000819055506084806100266000396000f3fe6080604052348015600f57600080fd5b506004361060285760003560e01c80633fa4f24514602d575b600080fd5b60336049565b6040518082815260200191505060405180910390f35b6000548156fea265627a7a723158204525c5ba9518a889bed2c60f58c9e8e3b9ac421d3e57bc1c1fa06d6cfd45fa4b64736f6c63430005100032",
  "source": "pragma solidity ^0.5.4;\r\n\r\ncontract Blog {\r\n\r\n    uint256 public value;\r\n    constructor () public {\r\n        value = 5;\r\n    }\r\n}",
  "sourcePath": "C:/Users/VASILISVITTIS/Documents/main/src/contracts/Blog.sol",
  "compiler": {
    "name": "solc",
    "version": "0.5.16+commit.9c3226ce.Emscripten.clang"
  },
  "schemaVersion": "3.2.3",
  "updatedAt": "2021-10-08T10:50:44.253Z",
  "networkType": "ethereum",
  "devdoc": {
    "methods": {}
  },
  "userdoc": {
    "methods": {}
  }
}